:020000040000FA
:02000000F92BDA
:10019800831222089A00210899000A309B00003037
:1001A8009C002330C62223301B2108000030E920A0
:1001B8000130E92003308312910097309000900BB2
:1001C800E328910BE328E828080083128F00051024
:1001D8000F08FC208312051506308E0030308D0084
:1001E8008D0BF4288E0BF4280000831205110800EB
:1001F80083128C000C1C01290229042906140529E4
:1002080006108C1C082909290B2986140C2986102C
:100218000C1D0F29102912290615132906118C1DEA
:1002280016291729192986151A29861108008312F3
:100238009400920193012E291208140791001108C5
:10024800840000083A210130831292070318930AA8
:1002580000309307120814079100110884008313D3
:100268000008031D38293929202908008312900025
:1002780010080F398E001008F0398F0005140F0888
:100288008D00043003108D0CFF3E031D46290D0818
:10029800FC20831205150D308D008D0B512983121A
:1002A80005110E08FC20831205150D308D008D0BED
:1002B8005B298312051108008312900191010C1C1F
:1002C800662967296D290E0890070318910A0F08F7
:1002D8009107013003108E0D8F0DFF3E031D6E290F
:1002E800013003108D0C8C0CFF3E031D75290C0882
:1002F8000D04031D80298129632911088D00100828
:100308008C0008000030FC201A3083129100F8306D
:100318009000900B8D29910B8D2900000330E92066
:100328000730831291007D309000900B9929910B32
:1003380099290330E9200F3083129100473090004B
:10034800900BA429910BA429A9290330E920023094
:10035800E9200230E9200830E9200030E9200C309B
:10036800E9200030E9200630E920080083129200D5
:100378001203031DC029C129D72910087F3E950003
:100388001508910004300310910CFF3E031DC72986
:100398001108930015080F3994001308E9208312F7
:1003A8001408E920F22902301206031DDC29DD2990
:1003B800F2291008BF3E950015089100043003107B
:1003C800910CFF3E031DE3291108930015080F390E
:1003D80094001308E92083121408E9200800831206
:1003E8000C080D040319F929FA29292A9001900A01
:1003F800082A013003108C0D8D0DFF3E031DFE29C8
:100408000130CF004F0890078D1F0B2A0C2AFD29B9
:100418000D080F02031D122A0C080E02031C152AD0
:10042800162A1C2A0C088E020D08031C8F038F0243
:10043800013003108D0C8C0CFF3E031D1D2A01306A
:100448009002031D282A292A0C2A0F088D000E085D
:100458008C000800831296019701120813040319EF
:10046800362A372A6E2A9801980A452A013003103D
:10047800920D930DFF3E031D3B2A0130CF004F081C
:100488009807931F482A492A3A2A01300310960DE3
:10049800970DFF3E031D4A2A13081502031D562A0D
:1004A80012081402031C592A5A2A612A12089402B3
:1004B8001308031C95039502161401300310930CBE
:1004C800920CFF3E031D622A01309802031D6D2A1B
:1004D8006E2A492A1708930016089200080083120A
:1004E80093018613920121308E008E0B792A831294
:1004F800861621308E008E0B7F2A831286120130D9
:10050800CF004F08920703301202031C8C2A8D2A51
:10051800772A920121308E008E0B902A831286163C
:1005280013088E000E079300061F9B2A9C2AA02AF8
:10053800130801389300A32A1308FE3993002130C9
:100548008E008E0BA52A831286120130CF004F0829
:10055800920708301202031CB22AB32A8E2A861781
:1005680013088E008F0103108E0D8F0D03108E0D52
:100578008F0D0E0890000F08910011088D001008CB
:100588008C0008008312A0001A089E0019089D001C
:100598001C0893001B0892001E0895001D08940073
:1005A8002E22831213089E0012089D000130CF00EE
:1005B8004F08A0071D081E04031DE32AE42ACC2ABD
:1005C80020088400831380010130A0021C088D00DC
:1005D8001B088C001A088F0019088E00F32183125B
:1005E8000C089F001C0893001B0892001A0895002D
:1005F800190894002E22831213089A0012089900F1
:100608000A301F02031C092B0A2B0E2B0730CF00C0
:100618004F089F073030CF004F089F0720088400FD
:100628001F08831380000130A00219081A04031D53
:100638001E2B1F2BEA2A0130CF004F08A007080005
:10064800403083168600850183128617861285102E
:100658008621732283120D08C8000C08C700FC30DD
:1006680092000330930048088D0047088C0005303D
:100678008E0000308F00602183120D0895000C0851
:1006880094002E2283121308C0001208BF004008ED
:100698008D003F088C00CC308E0000308F00602128
:1006A80083120D08C2000C08C10041084702B700B8
:1006B8004208031C420A4802B800FC30920003308A
:1006C800930038088D0037088C0032308E000030D7
:1006D8008F00602183120D0895000C0894002E22CB
:1006E80083121308C4001208C3003230920000308D
:1006F800930044088D0043088C00FC308E000330C2
:100708008F00602183120D0895000C0894002E229A
:1007180083121308BA001208B9004109B30042094C
:10072800B400B30A0319B40A39083302B5003A0809
:10073800031C3A0A3402B60047083507BB004808CC
:100748000318480A3607BC00FC30920003309300B7
:100758003C088D003B088C00F4308E0001308F007F
:10076800602183120D0895000C0894002E22831234
:100778001308BE001208BD00DA2083129001900A07
:100788000130BA2183124008A2003F08A100CC2002
:100798000230831290000130BA212E303A21033002
:1007A800831290000130BA2183124408A200430842
:1007B800A100CC200430831290000130BA218312AA
:1007C8003E08A2003D08A100CC2002308312B500EB
:1007D8000430B400BA30B300B30BF02BB40BF02BD9
:1007E800B50BF02B00002D2B00288312C501C60184
:0807F800C701C8018301242B95
:02400E00F13F80
:00000001FF
