:020000040000FA
:10000000EC2B00308A000408840A82070034303464
:080010002D3435345634003460
:10022400573465346C3463346F346D34653400345E
:1002340021089900200898000A309A0000309B0099
:100244002230352322307521080000303521013059
:1002540035210330910097309000900B2F29910B9A
:100264002F293429080083128F0005100F08472115
:10027400051506308E0030308D008D0B3F298E0B16
:100284003F2900008312051108008C000C1C4C2926
:1002940006144D2906108C1C5129861452298610E7
:1002A4000C1D56290615572906118C1D5B29861528
:1002B4000800861108008D000D088E000C088400CB
:1002C4000120CF000E0884004F088313800000082B
:1002D400031908000130CF004F088E070130CF000A
:1002E4004F088C07602994009201930112081407A7
:1002F40091001108840083130008031908001208F0
:1003040014079100110884000008B02101309207FD
:100314000318930A0030930778299C019D01181C47
:1003240099291A089C0703189D0A1B089D07013088
:1003340003109A0D9B0DFF3E031D9A2901300310F3
:10034400990C980CFF3E031DA12918081904031DDC
:1003540091291D0899001C089800080090001008B5
:100364000F398E001008F0398F0005140F088D0026
:10037400043003108D0CFF3E031DBB290D084721DB
:1003840005150D308D008D0BC529831205110E083E
:10039400472105150D308D008D0BCE2983120511D3
:1003A4000800003047211A309100F8309000900B7B
:1003B400D929910BD9290000033035210730910048
:1003C4007D309000900BE429910BE4290330352112
:1003D4000F30910047309000900BEE29910BEE29DD
:1003E400F32903303521023035210230352108301C
:1003F4003521003035210C303521003035210630CF
:10040400352108000C080D040319312A9001900AC3
:100414008D1B182A013003108C0D8D0DFF3E031D1A
:100424000D2A0130CF004F0890070A2A0D080F0249
:10043400031D1E2A0C080E02031C262A0C088E0219
:100444000D08031C8F038F02013003108D0C8C0CDC
:10045400FF3E031D272A01309002031D182A0F08AE
:100464008D000E088C00080092001203031D4F2A11
:1004740010087F3E95001508910004300310910C7C
:10048400FF3E031D402A1108930015080F399400FC
:100494001308352114083521080002301206031D03
:1004A40008001008BF3E95001508910004300310A1
:1004B400910CFF3E031D592A1108930015080F39AA
:1004C400940013083521140835210800950196017C
:1004D4001108120403199F2A9701970A921B7E2A76
:1004E40001300310910D920DFF3E031D732A01305C
:1004F400CF004F089707702A01300310950D960D11
:10050400FF3E031D7F2A12081402031D8B2A1108C3
:100514001302031C942A110893021208031C940367
:100524009402151401300310920C910CFF3E031D2C
:10053400952A01309702031D7E2A16089200150899
:10054400910008001A30840039309600040897009E
:100554000830980016088400831300089900960A4E
:100564001708840019088000970A980BAC2A2721E1
:1005740083129001900A013036221A30752110300E
:100584009800393097000D309600960BC72A970BC8
:10059400C72A980BC72ACE2A272183129001900AD2
:1005A4000130362201308C001A305D211A30752159
:1005B4000B309800263097005D309600960BE02AA9
:1005C400970BE02A980BE02AE72A272108008312D8
:1005D40093018613920121308E008E0BEF2A831231
:1005E400861621308E008E0BF52A83128612013076
:1005F400CF004F08920703301202031CED2A920128
:1006040021308E008E0B042B8312861613088E0065
:100614000E079300061F112B13080138132B130820
:10062400FE39930021308E008E0B162B8312861216
:100634000130CF004F08920708301202031C022B2E
:10064400861713088E008F0103108E0D8F0D031073
:100654008E0D8F0D0E0890000F08910011088D006B
:1006640010088C0008009F0019089D0018089C00C1
:100674001B0892001A0891001D0894001C0893009E
:10068400682212089D0011089C000130CF004F0819
:100694009F071C081D04031D3A2B1F0884008313A5
:1006A400800101309F021B088D001A088C00190874
:1006B4008F0018088E0004220C089E001B0892006C
:1006C4001A08910019089400180893006822120867
:1006D4009900110898000A301E02031C752B07307C
:1006E400CF004F089E073030CF004F089E071F08E9
:1006F40084001E088313800001309F021808190427
:10070400031D552B0130CF004F089F0708004030D0
:100714008316860085018312861786128510D321DD
:10072400A422E9220D08C2000C08C100CC309100BB
:100734000030920042089400410893006822120895
:10074400B6001108B5003330910000309200420821
:100754008F0041088E00CC308C0000308D000422C4
:100764000D0894000C0893006822120899001108DF
:10077400980019309A0000309B008F211908B800A6
:100784001808B700272183129001900A01303622FD
:100794003608A1003508A0001A210230900001306B
:1007A40036222E30B0210330900001303622380832
:1007B400A1003708A0001A210230B4000430B300AD
:1007C400BA30B200B20BE42BB30BE42BB40BE42B22
:1007D4000000932B1221B9001321BA001421BB008D
:1007E4001521BC001621BD001721BE001821BF0031
:0C07F4001921C000C101C2018301892B42
:02400E00F13F80
:00000001FF
