:020000040000FA
:10000000EA2B00308A000408840A82070034303466
:080010002D3435345634003460
:1001B400573465346C3463346F346D34653454347B
:1001C400003427089F0026089E000A30A000003053
:1001D400A1002830FE2228303E2108000030FE20F5
:1001E4000130FE200330910097309000900BF828E6
:1001F400910BF828FD28080083128F0005100F08C2
:100204001021051506308E0030308D008D0B082925
:100214008E0B082900008312051108008C000C1CA9
:1002240015290614162906108C1C1A2986141B2954
:1002340086100C1D1F290615202906118C1D242942
:1002440086150800861108008D000D088E000C0824
:1002540084000120CF000E0884004F08831380001F
:100264000008031908000130CF004F088E07013041
:10027400CF004F088C07292994009201930112089A
:10028400140791001108840083130008031908005F
:100294001208140791001108840000087921013024
:1002A40092070318930A0030930741299501960198
:1002B400111C6229130895070318960A1408960757
:1002C40001300310930D940DFF3E031D632901308B
:1002D4000310920C910CFF3E031D6A2911081204AD
:1002E400031D5A2916089200150891000800900071
:1002F40010080F398E001008F0398F0005140F080C
:100304008D00043003108D0CFF3E031D84290D085D
:10031400102105150D308D008D0B8E2983120511CA
:100324000E08102105150D308D008D0B97298312B1
:1003340005110800003010211A309100F8309000A7
:10034400900BA229910BA22900000330FE20073054
:1003540091007D309000900BAD29910BAD290330B5
:10036400FE200F30910047309000900BB729910B7D
:10037400B729BC290330FE200230FE200230FE20C3
:100384000830FE200030FE200C30FE200030FE201D
:100394000630FE2008000C080D040319FA29900108
:1003A400900A8D1BE129013003108C0D8D0DFF3E49
:1003B400031DD6290130CF004F089007D3290D081B
:1003C4000F02031DE7290C080E02031CEF290C0879
:1003D4008E020D08031C8F038F02013003108D0C55
:1003E4008C0CFF3E031DF02901309002031DE1290E
:1003F4000F088D000E088C00080092001203031DE4
:10040400182A10087F3E9500150891000430031047
:10041400910CFF3E031D092A1108930015080F399A
:1004240094001308FE201408FE200800023012066F
:10043400031D08001008BF3E950015089100043004
:100444000310910CFF3E031D222A11089300150886
:100454000F3994001308FE201408FE2008009B01A5
:100464009C01170818040319682A9D019D0A981B0A
:10047400472A01300310970D980DFF3E031D3C2AB7
:100484000130CF004F089D07392A013003109B0D1E
:100494009C0DFF3E031D482A18081A02031D542A06
:1004A40017081902031C5D2A170899021808031C6F
:1004B4009A039A021B1401300310980C970CFF3E08
:1004C400031D5E2A01309D02031D472A1C08980063
:1004D4001B08970008001A30840043309600040873
:1004E40097000930980016088400831300089900C7
:1004F400960A1708840019088000970A980B752A31
:10050400F02083129001900A0130FF211A303E211D
:1005140010309800393097000D309600960B902AD1
:10052400970B902A980B902A972AF0208312900117
:10053400900A0130FF2101308C001A3026211A3034
:100544003E210B309800263097005D309600960BC4
:10055400A92A970BA92A980BA92AB02AF0200800E7
:10056400831293018613920121308E008E0BB82AD8
:100574008312861621308E008E0BBE2A83128612B9
:100584000130CF004F08920703301202031CB62A31
:10059400920121308E008E0BCD2A83128616130809
:1005A4008E000E079300061FDA2A13080138DC2A8E
:1005B4001308FE39930021308E008E0BDF2A83123C
:1005C40086120130CF004F08920708301202031C34
:1005D400CB2A861713088E008F0103108E0D8F0D02
:1005E40003108E0D8F0D0E0890000F089100110856
:1005F4008D0010088C000800A5001F08A3001E0829
:10060400A200210898002008970023089A002208D5
:10061400990031221808A3001708A2000130CF0066
:100624004F08A50722082304031D032B2508840073
:10063400831380010130A50221088D0020088C005D
:100644001F088F001E088E00CD210C08A40021086D
:100654009800200897001F089A001E08990031226C
:1006640018089F0017089E000A302402031C3E2B22
:100674000730CF004F08A4073030CF004F08A4073D
:10068400250884002408831380000130A5021E0875
:100694001F04031D1E2B0130CF004F08A5070800BF
:1006A40040308316860085018312861786128510D2
:1006B4009C216D22B2220D08CD000C08CC00CC3058
:1006C4009700003098004D089A004C089900312298
:1006D4001808BC001708BB00CC3097000030980005
:1006E4004D088F004C088E00CC308C0000308D00FB
:1006F400CD210D0892000C0891000A3093000030BF
:100704009400582112089A001108990031221808FF
:10071400BE001708BD004D0892004C0891000A3035
:10072400930000309400582112088F0011088E00A5
:10073400CC308C0000308D00CD210D08C2000C0897
:10074400C100CC3097000030980042089200410864
:1007540091000A30930000309400582112089A0046
:100764001108990031221808C0001708BF00F020B2
:1007740083129001900A0130FF213C08A7003B0836
:10078400A600E320023090000130FF212E307921B1
:10079400033090000130FF213E08A7003D08A60069
:1007A400E320043090000130FF214008A7003F08F7
:1007B400A600E3200230BA000430B900BA30B80011
:1007C400B80BE22BB90BE22BBA0BE22B00005C2B2B
:1007D400DA20C300DB20C400DC20C500DD20C60015
:1007E400DE20C700DF20C800E020C900E120CA00E5
:0C07F400E220CB00CC01CD018301522B90
:02400E00F13F80
:00000001FF
