:020000040000FA
:020000000B28CB
:10000800CE00030E83128E000A088F00B62B0C2830
:10001800CB23C700CC23C800CD23C900C401C50128
:10002800C6018301172841308316860008308500F1
:100038008312861786128510831601170B168B17E5
:100048008122F6228312460803195B289401940A38
:1000580001301D223D08AB003C08AA009323023062
:10006800940001301D222E30B2220330940001305A
:100078001D223F08AB003E08AA00932306309400D7
:1000880001301D224108AB004008AA009323073025
:10009800940001301D222E30B22208309400013025
:1000A8001D224308AB004208AA0093232628962164
:1000B8001108C5001008C400CC309B0000309C001B
:1000C80045089E0044089D00E1211C08BD001B084E
:1000D800BC00CC309B0000309C00450893004408CD
:1000E8009200CC309000003091004F221108960009
:1000F800100895000A30970000309800D52216089D
:100108009E0015089D00E1211C08BF001B08BE00C9
:100118004B211108C5001008C400CC309B000030EA
:100128009C0045089E0044089D00E1211C08C10070
:100138001B08C000CC309B0000309C004508930091
:1001480044089200CC309000003091004F221108F2
:100158009600100895000A30970000309800D522C4
:1001680016089E0015089D00E1211C08C3001B0805
:10017800C200852383129401940A01301D223D0890
:10018800AB003C08AA0093230230940001301D22E2
:100198002E30B2220330940001301D223F08AB00FC
:1001A8003E08AA0093230630940001301D2241081E
:1001B800AB004008AA0093230730940001301D22A9
:1001C8002E30B2220830940001301D224308AB00C3
:1001D8004208AA0093230930940001301D225630AA
:1001E800B222AB232628A9002308A7002208A600CC
:1001F80025089C0024089B0027089E0026089D00CF
:10020800E1211C08A7001B08A6000130CF004F08F9
:10021800A90726082704031DFC282908840083133E
:1002280080010130A90225089100240890002308C4
:100238009300220892004F221008A80025089C006D
:1002480024089B0023089E0022089D00E1211C0829
:10025800A3001B08A2000A302802031C3729073014
:10026800CF004F08A8073030CF004F08A80729084B
:1002780084002808831380000130A902220823047F
:10028800031D17290130CF004F08A907080097015F
:100298008613960121309200920B502983128616FC
:1002A80021309200920B5629831286120130CF001A
:1002B8004F08960703301602031C4E299601213079
:1002C8009200920B6529831286161708920012076E
:1002D8009700851D72291708013874291708FE39F7
:1002E800970021309200920B7729831286120130F1
:1002F800CF004F08960708301602031C632986179B
:100308001708920093010310920D930D0310920D9C
:10031800930D12089400130895001508910014080D
:100328009000080097018613960121309200920BE5
:100338009B298312861621309200920BA1298312E1
:1003480086120130CF004F08960703301602031CAF
:100358009929960121309200920BB02983128616B2
:100368001708920012079700061FBD2917080138C1
:10037800BF291708FE39970021309200920BC22935
:10038800831286120130CF004F08960708301602F4
:10039800031CAE2986171708920093010310920DCB
:1003A800930D0310920D930D1208940013089500F5
:1003B800150891001408900008009F01A0011B086F
:1003C8001C040319182AA101A10A9C1BF729013052
:1003D80003109B0D9C0DFF3E031DEC290130CF003F
:1003E8004F08A107E929013003109F0DA00DFF3E1A
:1003F800031DF8291C081E02031D042A1B081D02E0
:10040800031C0D2A1B089D021C08031C9E039E0248
:100418001F14013003109C0C9B0CFF3E031D0E2A79
:100428000130A102031DF72920089C001F089B002A
:10043800080096001603031D362A14087F3E99000B
:100448001908950004300310950CFF3E031D272A58
:100458001508970019080F3998001708732318080A
:100468007323080002301606031D08001408BF3E57
:1004780099001908950004300310950CFF3E031DE0
:10048800402A1508970019080F3998001708732390
:100498001808732308001008110403197C2A940112
:1004A800940A911B632A01300310900D910DFF3EB1
:1004B800031D582A0130CF004F089407552A110808
:1004C8001302031D692A10081202031C712A10085E
:1004D80092021108031C9303930201300310910C3C
:1004E800900CFF3E031D722A01309402031D632AFB
:1004F80013089100120890000800003046231A30B3
:100508009500F8309400940B872A950B872A0000F1
:1005180003307323073095007D309400940B922AA2
:10052800950B922A033073230F30950047309400BF
:10053800940B9C2A950B9C2AA12A03307323023022
:1005480073230230732308307323003073230C3075
:1005580073230030732306307323080094001408B3
:100568000F3992001408F03993000514130891000C
:1005780004300310910CFF3E031DBD2A11084623C9
:1005880005150D309100910BC72A83120511120829
:10059800462305150D309100910BD02A83120511C1
:1005A800080099019A01151CDF2A170899070318F2
:1005B8009A0A18089A0701300310970D980DFF3E04
:1005C800031DE02A01300310960C950CFF3E031D15
:1005D800E72A15081604031DD72A1A0896001908D1
:1005E8009500080047089A0048089B0049089C00A5
:1005F800852383129401940A01301D221A30142392
:100608005D23852383129401940A01301D22013051
:1006180090001A302E231A3014235D2385230800F6
:100628009800960197011608180795001508840088
:100638008313000803190800160818079500150801
:1006480084000008B222013096070318970A003088
:100658009707172B91001108920010088400A02317
:10066800CF00120884004F08831380000008031984
:1006780008000130CF004F0892070130CF004F0823
:100688009007312B83129000101C4C2B86144D2B95
:100698008610901C512B0615522B0611101D562B37
:1006A8008615572B8611901D5B2B0616080006121F
:1006B800080092019301AB230130831292070318BB
:1006C800930A003093071308803ACF0080304F0216
:1006D800031D702B14301202031808005F2B8312BD
:1006E8009300051013084623051506309200303094
:1006F8009100910B7D2B920B7D2B0000831205112D
:1007080008000030732301307323033095009730BD
:100718009400940B8D2B950B8D2B922B08002B0896
:10072800A3002A08A2000A30A4000030A5002C303B
:10073800F7202C301423080003308A000408840AA8
:100748008207003430342D34353456340034823046
:1007580083129100DD309000900BB02B910BB02BE1
:10076800B52B08008B10C609C12383120F088A0015
:100778000E0E8300CE0E4E0E090082308D00DD3045
:100788008C008C0BC52B8D0BC52BCA2B080048344D
:04079800693400348C
:02400E00F13F80
:00000001FF
