:020000040000FA
:020000000B28CB
:10000800CE00030E83128E000A088F00B02B0C2836
:10001800C523C700C623C800C723C900C401C5013A
:10002800C6018301172841308316860008308500F1
:100038008312861786128510831601170B168B17E5
:100048007B22F0228312460803195B289401940A44
:10005800013017223D08AB003C08AA008D2302306E
:100068009400013017222E30AC2203309400013066
:1000780017223F08AB003E08AA008D2306309400E3
:10008800013017224108AB004008AA008D23073031
:100098009400013017222E30AC2208309400013031
:1000A80017224308AB004208AA008D232628902176
:1000B8001108C5001008C400CC309B0000309C001B
:1000C80045089E0044089D00DB211C08BD001B0854
:1000D800BC00CC309B0000309C00450893004408CD
:1000E8009200CC309000003091004922110896000F
:1000F800100895000A30970000309800CF221608A3
:100108009E0015089D00DB211C08BF001B08BE00CF
:1001180045211108C5001008C400CC309B000030F0
:100128009C0045089E0044089D00DB211C08C10076
:100138001B08C000CC309B0000309C004508930091
:1001480044089200CC3090000030910049221108F8
:100158009600100895000A30970000309800CF22CA
:1001680016089E0015089D00DB211C08C3001B080B
:10017800C2007F2383129401940A013017223D089C
:10018800AB003C08AA008D230230940001301722EE
:100198002E30AC2203309400013017223F08AB0008
:1001A8003E08AA008D23063094000130172241082A
:1001B800AB004008AA008D230730940001301722B5
:1001C8002E30AC2208309400013017224308AB00CF
:1001D8004208AA008D23A5232628A9002308A700E2
:1001E8002208A60025089C0024089B0027089E00DA
:1001F80026089D00DB211C08A7001B08A60001306B
:10020800CF004F08A90726082704031DF628290848
:100218008400831380010130A90225089100240875
:100228009000230893002208920049221008A80091
:1002380025089C0024089B0023089E0022089D0096
:10024800DB211C08A3001B08A2000A302802031C9B
:1002580031290730CF004F08A8073030CF004F08AA
:10026800A807290884002808831380000130A90200
:1002780022082304031D11290130CF004F08A907C4
:10028800080097018613960121309200920B4A29A3
:100298008312861621309200920B502983128612FF
:1002A8000130CF004F08960703301602031C482977
:1002B800960121309200920B5F2983128616170847
:1002C800920012079700851D6C29170801386E29BE
:1002D8001708FE39970021309200920B712983127A
:1002E80086120130CF004F08960708301602031C0B
:1002F8005D2986171708920093010310920D930D3C
:100308000310920D930D1208940013089500150818
:100318009100140890000800970186139601213077
:100328009200920B95298312861621309200920B27
:100338009B29831286120130CF004F08960703309D
:100348001602031C9329960121309200920BAA29C8
:10035800831286161708920012079700061FB729FE
:1003680017080138B9291708FE399700213092007B
:10037800920BBC29831286120130CF004F089607D2
:1003880008301602031CA829861717089200930143
:100398000310920D930D0310920D930D1208940003
:1003A80013089500150891001408900008009F0193
:1003B800A0011B081C040319122AA101A10A9C1BF5
:1003C800F129013003109B0D9C0DFF3E031DE6290A
:1003D8000130CF004F08A107E329013003109F0D1A
:1003E800A00DFF3E031DF2291C081E02031DFE2955
:1003F8001B081D02031C072A1B089D021C08031C5E
:100408009E039E021F14013003109C0C9B0CFF3EA0
:10041800031D082A0130A102031DF12920089C00B0
:100428001F089B00080096001603031D302A1408B5
:100438007F3E99001908950004300310950CFF3E83
:10044800031D212A1508970019080F399800170865
:100458006D2318086D23080002301606031D0800D6
:100468001408BF3E99001908950004300310950C34
:10047800FF3E031D3A2A1508970019080F399800FE
:1004880017086D2318086D230800100811040319B4
:10049800762A9401940A911B5D2A01300310900D6D
:1004A800910DFF3E031D522A0130CF004F089407DB
:1004B8004F2A11081302031D632A10081202031C95
:1004C8006B2A100892021108031C9303930201304F
:1004D8000310910C900CFF3E031D6C2A013094020E
:1004E800031D5D2A130891001208900008000030CF
:1004F80040231A309500F8309400940B812A950B0C
:10050800812A000003306D23073095007D30940068
:10051800940B8C2A950B8C2A03306D230F30950091
:1005280047309400940B962A950B962A9B2A033001
:100538006D2302306D2302306D2308306D230030A7
:100548006D230C306D2300306D2306306D230800B9
:10055800940014080F3992001408F0399300051418
:100568001308910004300310910CFF3E031DB72AB5
:100578001108402305150D309100910BC12A8312F3
:1005880005111208402305150D309100910BCA2A58
:1005980083120511080099019A01151CD92A170818
:1005A800990703189A0A18089A0701300310970D3B
:1005B800980DFF3E031DDA2A01300310960C950CA6
:1005C800FF3E031DE12A15081604031DD12A1A0847
:1005D800960019089500080047089A0048089B00EB
:1005E80049089C007F2383129401940A0130172242
:1005F8001A300E2357237F2383129401940A013063
:100608001722013090001A3028231A300E2357235E
:100618007F2308009800960197011608180795008F
:100628001508840083130008031908001608180722
:100638009500150884000008AC22013096070318BD
:10064800970A00309707112B9100110892001008A3
:1006580084009A23CF00120884004F088313800077
:100668000008031908000130CF004F089207013035
:10067800CF004F0890072B2B83129000101C462B9D
:100688008614472B8610901C4B2B06154C2B0611F5
:10069800101D502B8615512B8611901D552B0616B3
:1006A80008000612080092019301A5230130831265
:1006B80092070318930A003093071308803ACF0073
:1006C80080304F02031D6A2B1430120203180800F1
:1006D800592B831293000510130840230515063083
:1006E800920030309100910B772B920B772B000002
:1006F80083120511080000306D2301306D2303308B
:10070800950097309400940B872B950B872B8C2B97
:1007180008002B08A3002A08A2000A30A400003011
:10072800A5002C30F1202C300E23080003308A005D
:100738000408840A8207003430342D3435345634A2
:100748000034823083129100DD309000900BAA2B88
:10075800910BAA2BAF2B08008B10C609BB23831261
:100768000F088A000E0E8300CE0E4E0E090082304E
:100778008D00DD308C008C0BBF2B8D0BBF2BC42B59
:08078800080048346934003414
:02400E00F13F80
:00000001FF
