:020000040000FA
:020000000B28CB
:10000800CE00030E83128E000A088F00082B0C28DE
:100018003423BA003523BB003623BC003723BD0088
:100028003823BE003923BF003A23C0003B23C10058
:10003800C201C301C401C5018301222841308316CE
:10004800860085018312861786128510831601178C
:100058000B168B17DA210B2283124208430403196B
:100068004E289401940A013076213708A5003608F5
:10007800A400FB2202309400013076212E30382271
:1000880003309400013076213908A5003808A4000F
:10009800FB223028EF201108C5001008C400CC301E
:1000A80095000030960045089800440897003A21CA
:1000B8001608B7001508B6003330950000309600D2
:1000C8004508930044089200CC309000003091001D
:1000D800A82111089800100897003A2116089D00D9
:1000E80015089C0019309E0000309F005B221D08F7
:1000F800B9001C08B800ED2283129401940A01305B
:1001080076213708A5003608A400FB2202309400A7
:10011800013076212E3038220330940001307621C8
:100128003908A5003808A400FB221F233028A300A3
:100138001D08A1001C08A0001F0896001E089500B5
:1001480021089800200897003A211608A1001508F0
:10015800A0000130CF004F08A30720082104031D89
:10016800A02823088400831380010130A3021F08FC
:1001780091001E0890001D0893001C089200A821F9
:100188001008A2001F0896001E0895001D08980078
:100198001C0897003A2116089D0015089C000A3093
:1001A8002202031CDB280730CF004F08A20730309B
:1001B800CF004F08A2072308840022088313800079
:1001C8000130A3021C081D04031DBB280130CF0009
:1001D8004F08A30708009701861396012130920063
:1001E800920BF4288312861621309200920BFA287B
:1001F800831286120130CF004F089607033016028B
:10020800031CF228960121309200920B09298312CF
:1002180086161708920012079700061F1629170856
:10022800013818291708FE39970021309200920BDF
:100238001B29831286120130CF004F089607083019
:100248001602031C0729861717089200930103104A
:10025800920D930D0310920D930D1208940013083C
:1002680095001508910014089000080099019A015A
:1002780015081604031971299B019B0A961B50291E
:1002880001300310950D960DFF3E031D45290130E1
:10029800CF004F089B07422901300310990D9A0D92
:1002A800FF3E031D512916081802031D5D29150874
:1002B8001702031C6629150897021608031C9803E1
:1002C8009802191401300310960C950CFF3E031D7B
:1002D800672901309B02031D50291A089600190846
:1002E8009500080096001603031D8F2914087F3E09
:1002F80099001908950004300310950CFF3E031D62
:1003080080291508970019080F3998001708DB226B
:100318001808DB22080002301606031D080014081E
:10032800BF3E99001908950004300310950CFF3E54
:10033800031D99291508970019080F3998001708FF
:10034800DB221808DB220800100811040319D5293C
:100358009401940A911BBC2901300310900D910D52
:10036800FF3E031DB1290130CF004F089407AE2985
:1003780011081302031DC22910081202031CCA29FE
:10038800100892021108031C930393020130031012
:10039800910C900CFF3E031DCB2901309402031DE4
:1003A800BC29130891001208900008000030AE2202
:1003B8001A309500F8309400940BE029950BE02949
:1003C80000000330DB22073095007D309400940B49
:1003D800EB29950BEB290330DB220F3095004730D2
:1003E8009400940BF529950BF529FA290330DB22A3
:1003F8000230DB220230DB220830DB220030DB2235
:100408000C30DB220030DB220630DB2208001E30F5
:1004180084003A309A0004089B0008309C001A08AF
:100428008400831300089D009A0A1B0884001D0895
:1004380080009B0A9C0B132AED2283129401940AD4
:10044800013076211E307C22C522ED2283129401D0
:10045800940A01307621013090001E3096221E3019
:100468007C22C522ED220800940014080F3992005E
:100478001408F03993000514130891000430031090
:10048800910CFF3E031D432A1108AE2205150D30BD
:100498009100910B4D2A831205111208AE22051501
:1004A8000D309100910B562A831205110800A00106
:1004B800A1011C1C652A1E08A0070318A10A1F0811
:1004C800A107013003109E0D9F0DFF3E031D662AF4
:1004D800013003109D0C9C0CFF3E031D6D2A1C0867
:1004E8001D04031D5D2A21089D0020089C000800AA
:1004F80098009601970116081807950015088400BA
:100508008313000803190800160818079500150832
:10051800840000083822013096070318970A003033
:1005280097077F2A9100110892001008840014236D
:10053800CF00120884004F088313800000080319B5
:1005480008000130CF004F0892070130CF004F0854
:100558009007992A83129000101CB42A8614B52A91
:100568008610901CB92A0615BA2A0611101DBE2A33
:100578008615BF2A8611901DC32A06160800061282
:100588000800920193011F23013083129207031878
:10059800930A003093071308803ACF0080304F0247
:1005A800031DD82A1430120203180800C72A831220
:1005B800930005101308AE2205150630920030305E
:1005C8009100910BE52A920BE52A00008312051190
:1005D80008000030DB220130DB2203309500973021
:1005E8009400940BF52A950BF52AFA2A0800250899
:1005F8009D0024089C000A309E0000309F00263091
:100608009B2026307C2208008B10C209C3092A23AC
:1006180083120F088A000E0E8300CE0E4E0E0900BC
:1006280003308A000408840A8207003430342D34E9
:10063800353456340034823083129100DD30900016
:10064800900B242B910B242B292B080082308D0032
:10065800DD308C008C0B2E2B8D0B2E2B332B0800B2
:10066800573465346C3463346F346D346534003416
:02400E00F13F80
:00000001FF
