:020000040000FA
:020000000B28CB
:10000800CE00030E83128E000A088F00BA2B0C282C
:10001800E623BE00E723BF00E823C000E923C100B0
:10002800EA23C200EB23C300EC23C400ED23C50080
:10003800C601C701C801C9018301222841308316BE
:10004800860008308500831286178612851083166D
:1000580001170B168B178C22BD2283124608470402
:1000680003196C289401940A013028223708A50046
:100078003608A400AD2302309400013028222E3027
:10008800EA2203309400013028223908A5003808F4
:10009800A400AD2306309400013028223B08A500B7
:1000A8003A08A400AD2307309400013028222E30EE
:1000B800EA2208309400013028223D08A5003C08B7
:1000C800A400AD233D08A5003C08A400AD233128B9
:1000D800A1211108C9001008C800CC3095000030D3
:1000E80096004908980048089700EC211608B700C0
:1000F8001508B600CC3095000030960049089300EA
:1001080048089200CC309000003091005A22110823
:10011800980010089700EC2116089D0015089C000F
:100128000A309E0000309F000D231D08B9001C08EE
:10013800B80056211108C9001008C800CC30950035
:10014800003096004908980048089700EC211608E6
:10015800BB001508BA00CC3095000030960049085D
:10016800930048089200CC309000003091005A2249
:100178001108980010089700EC2116089D00150832
:100188009C000A309E0000309F000D231D08BD0012
:100198001C08BC009F2383129401940A0130282272
:1001A8003708A5003608A400AD23023094000130BA
:1001B80028222E30EA220330940001302822390800
:1001C800A5003808A400AD23063094000130282289
:1001D8003B08A5003A08A400AD230730940001307D
:1001E80028222E30EA2208309400013028223D08C7
:1001F800A5003C08A400AD23D1233128A3001D0885
:10020800A1001C08A0001F0896001E0895002108E0
:10021800980020089700EC211608A1001508A000F6
:100228000130CF004F08A30720082104031D072928
:1002380023088400831380010130A3021F08910062
:100248001E0890001D0893001C0892005A221008EE
:10025800A2001F0896001E0895001D0898001C089B
:100268009700EC2116089D0015089C000A30220210
:10027800031C42290730CF004F08A2073030CF00B7
:100288004F08A20723088400220883138000013046
:10029800A3021C081D04031D22290130CF004F08AA
:1002A800A307080097018613960121309200920B4C
:1002B8005B298312861621309200920B61298312E2
:1002C80086120130CF004F08960703301602031C30
:1002D8005929960121309200920B702983128616B3
:1002E8001708920012079700851D7D291708013805
:1002F8007F291708FE39970021309200920B822936
:10030800831286120130CF004F0896070830160274
:10031800031C6E2986171708920093010310920D8B
:10032800930D0310920D930D120894001308950075
:10033800150891001408900008009701861396018B
:1003480021309200920BA629831286162130920042
:10035800920BAC29831286120130CF004F08960702
:1003680003301602031CA429960121309200920B37
:10037800BB29831286161708920012079700061FDA
:10038800C82917080138CA291708FE3997002130EB
:100398009200920BCD29831286120130CF004F08AC
:1003A800960708301602031CB92986171708920009
:1003B80093010310920D930D0310920D930D1208E3
:1003C800940013089500150891001408900008007F
:1003D80099019A01150816040319232A9B019B0AFF
:1003E800961B022A01300310950D960DFF3E031D42
:1003F800F7290130CF004F089B07F429013003107B
:10040800990D9A0DFF3E031D032A16081802031DB5
:100418000F2A15081702031C182A15089702160830
:10042800031C98039802191401300310960C950CBC
:10043800FF3E031D192A01309B02031D022A1A08D8
:10044800960019089500080096001603031D412A16
:1004580014087F3E99001908950004300310950C84
:10046800FF3E031D322A1508970019080F39980016
:1004780017088D2318088D23080002301606031D5F
:1004880008001408BF3E99001908950004300310AD
:10049800950CFF3E031D4B2A1508970019080F39C4
:1004A800980017088D2318088D23080010081104D8
:1004B8000319872A9401940A911B6E2A01300310AC
:1004C800900D910DFF3E031D632A0130CF004F08A8
:1004D8009407602A11081302031D742A10081202D7
:1004E800031C7C2A100892021108031C9303930230
:1004F80001300310910C900CFF3E031D7D2A013042
:100508009402031D6E2A1308910012089000080037
:10051800003060231A309500F8309400940B922A2A
:10052800950B922A000003308D23073095007D300B
:100538009400940B9D2A950B9D2A03308D230F3030
:10054800950047309400940BA72A950BA72AAC2A4C
:1005580003308D2302308D2302308D2308308D2304
:1005680000308D230C308D2300308D2306308D23F1
:1005780008001E3084003E309A0004089B000830B2
:100588009C001A088400831300089D009A0A1B081F
:1005980084001D0880009B0A9C0BC52A9F23831298
:1005A8009401940A013028221E302E2377239F239A
:1005B80083129401940A01302822013090001E30E1
:1005C80048231E302E2377239F2308009400140805
:1005D8000F3992001408F03993000514130891009C
:1005E80004300310910CFF3E031DF52A1108602307
:1005F80005150D309100910BFF2A83120511120881
:10060800602305150D309100910B082B83120511FD
:100618000800A001A1011C1C172B1E08A007031825
:10062800A10A1F08A107013003109E0D9F0DFF3E70
:10063800031D182B013003109D0C9C0CFF3E031D5D
:100648001F2B1C081D04031D0F2B21089D002008CB
:100658009C00080098009601970116081807950055
:1006680015088400831300080319080016081807E2
:100678009500150884000008EA220130960703183F
:10068800970A00309707312B910011089200100843
:100698008400C623CF00120884004F08831380000B
:1006A8000008031908000130CF004F0892070130F5
:1006B800CF004F0890074B2B83129000101C662B1D
:1006C8008614672B8610901C6B2B06156C2B061155
:1006D800101D702B8615712B8611901D752B061613
:1006E80008000612080092019301D12301308312F9
:1006F80092070318930A003093071308803ACF0033
:1007080080304F02031D8A2B143012020318080090
:10071800792B831293000510130860230515063002
:10072800920030309100910B972B920B972B000081
:1007380083120511080000308D2301308D2303300A
:10074800950097309400940BA72B950BA72BAC2BF7
:10075800080025089D0024089C000A309E000030EF
:100768009F002630022126302E2308008B10C60950
:10077800C709DC2383120F088A000E0E8300CE0EF1
:100788004E0E090003308A000408840A82070034E8
:1007980030342D343534563400348230831291008D
:1007A800DD309000900BD62B910BD62BDB2B08005D
:1007B80082308D00DD308C008C0BE02B8D0BE02B14
:1007C800E52B0800573465346C3463346F346D346A
:0407D8006534003450
:02400E00F13F80
:00000001FF
