:020000040000FA
:020000000B28CB
:10000800CE00030E83128F000A0890000E2B0C28D6
:100018002523BB002623BC002723BD002823BE00C0
:100028002923BF002A23C0002B23C1002C23C20090
:10003800C301C401C501C6018301222841308316CA
:10004800860085018312861786128510831601178C
:100058000B168B17DA210B22831243084404031969
:100068004E289501950A013076213808A6003708F0
:10007800A500012302309500013076212E30382268
:1000880003309500013076213A08A6003908A5000A
:1000980001233028EF201208C6001108C500CC3013
:1000A80096000030970046089900450898003A21C4
:1000B8001708B8001608B7003330960000309700CC
:1000C8004608940045089300CC3091000030920017
:1000D800A82112089900110898003A2117089E00D3
:1000E80016089D0019309F000030A0005B221E08F2
:1000F800BA001D08B900E52283129501950A01305E
:1001080076213808A6003708A5000123023095009B
:10011800013076212E3038220330950001307621C7
:100128003A08A6003908A5000123D7223028A400E0
:100138001E08A2001D08A100200897001F089600AD
:1001480022089900210898003A211708A2001608E9
:10015800A1000130CF004F08A40721082204031D85
:10016800A02824088400831380010130A4022008F9
:1001780092001F0891001E0894001D089300A821F2
:100188001108A300200897001F0896001E08990070
:100198001D0898003A2117089E0016089D000A308D
:1001A8002302031CDB280730CF004F08A307303099
:1001B800CF004F08A3072408840023088313800076
:1001C8000130A4021D081E04031DBB280130CF0006
:1001D8004F08A4070800980186139701213093005F
:1001E800930BF4288312861621309300930BFA2878
:1001F800831286120130CF004F0897070330170289
:10020800031CF228970121309300930B09298312CC
:1002180086161808930013079800061F1629180851
:10022800013818291808FE39980021309300930BDB
:100238001B29831286120130CF004F089707083018
:100248001702031C07298617180893009401031046
:10025800930D940D0310930D940D13089500140835
:100268009600160892001508910008009A019B0153
:1002780016081704031971299C019C0A971B502919
:1002880001300310960D970DFF3E031D45290130DF
:10029800CF004F089C074229013003109A0D9B0D8F
:1002A800FF3E031D512917081902031D5D29160871
:1002B8001802031C6629160898021708031C9903DC
:1002C80099021A1401300310970C960CFF3E031D77
:1002D800672901309C02031D50291B0897001A0842
:1002E8009600080097001703031D8F2915087F3E05
:1002F8009A001A08960004300310960CFF3E031D5E
:100308008029160898001A080F3999001808C5227C
:100318001908C522080002301706031D0800150831
:10032800BF3E9A001A08960004300310960CFF3E50
:10033800031D9929160898001A080F3999001808FA
:10034800C5221908C5220800110812040319D52965
:100358009501950A921BBC2901300310910D920D4D
:10036800FF3E031DB1290130CF004F089507AE2984
:1003780012081402031DC22911081302031CCA29FA
:10038800110893021208031C94039402013003100D
:10039800920C910CFF3E031DCB2901309502031DE1
:1003A800BC29140892001308910008000030AE22FE
:1003B8001A309600F8309500950BE029960BE02945
:1003C80000000330C522073096007D309500950B5C
:1003D800EB29960BEB290330C5220F3096004730E6
:1003E8009500950BF529960BF529FA290330C522B6
:1003F8000230C5220230C5220830C5220030C5228D
:100408000C30C5220030C5220630C52208001F3036
:1004180084003B309B0004089C0008309D001B08AA
:100428008400831300089E009B0A1C0884001E0891
:1004380080009C0A9D0B132AE52283129501950AD8
:10044800013076211F307C22D722E52283129501C4
:10045800950A01307621013091001F3096221F3015
:100468007C22D722E5220800950015080F39930051
:100478001508F0399400051414089200043003108C
:10048800920CFF3E031D432A1208AE2205150D30BB
:100498009200920B4D2A831205111308AE220515FE
:1004A8000D309200920B562A831205110800A10103
:1004B800A2011D1C652A1F08A1070318A20A20080B
:1004C800A207013003109F0DA00DFF3E031D662AF1
:1004D800013003109E0C9D0CFF3E031D6D2A1D0864
:1004E8001E04031D5D2A22089E0021089D000800A5
:1004F80099009701980117081907960016088400B3
:10050800831300080319080017081907960016082E
:10051800840000083822013097070318980A003031
:1005280098077F2A920012089300110884001A2362
:10053800CF00130884004F088313800000080319B4
:1005480008000130CF004F0893070130CF004F0853
:100558009107992A83129100111CB42A8614B52A8E
:100568008610911CB92A0615BA2A0611111DBE2A31
:100578008615BF2A8611911DC32A06160800061281
:1005880008008312940005101408AE2205150630E1
:10059800930030309200920BCF2A930BCF2A0000A1
:1005A800831205110800033093008A3092005530F9
:1005B8009100910BDD2A920BDD2A930BDD2AE42AA8
:1005C80008000030C5220130C5220330960097305C
:1005D8009500950BED2A960BED2AF22A08000330B8
:1005E8008E008A308D0055308C008C0BF92A8D0BCB
:1005F800F92A8E0BF92A002B080026089E002508E8
:100608009D000A309F000030A00027309B20273033
:100618007C2208008B10C309C409F3228312100836
:100628008A000F0E8300CE0E4E0E090003308A009A
:100638000408840A8207003430342D3435345634A3
:100648000034573465346C3463346F346D34653436
:0206580000346C
:02400E00F13F80
:00000001FF
