:020000040000FA
:020000000B28CB
:10000800CE00030E83128E000A088F00B52B0C2831
:10001800E123BE00E223BF00E323C000E423C100C4
:10002800E523C200E623C300E723C400E823C50094
:10003800C601C701C801C9018301222841308316BE
:10004800860008308500831286178612851083166D
:1000580001170B168B178722B8228312460847040C
:10006800031967289401940A013023223708A50050
:100078003608A400A82302309400013023222E3031
:10008800E52203309400013023223908A5003808FE
:10009800A400A82304309400013023223B08A500C3
:1000A8003A08A400A82305309400013023222E30FA
:1000B800E52206309400013023223D08A5003C08C3
:1000C800A400A82331289C211108C9001008C800E1
:1000D800CC309500003096004908980048089700F1
:1000E800E7211608B7001508B60033309500003030
:1000F80096004908930048089200CC3090000030E0
:10010800910055221108980010089700E721160859
:100118009D0015089C0019309E0000309F000823A0
:100128001D08B9001C08B80051211108C9001008A1
:10013800C800CC309500003096004908980048085F
:100148009700E7211608BB001508BA003330950060
:10015800003096004908930048089200CC3090007F
:100168000030910055221108980010089700E721E7
:1001780016089D0015089C0019309E0000309F004D
:1001880008231D08BD001C08BC009A238312940193
:10019800940A013023223708A5003608A400A823B2
:1001A80002309400013023222E30E52203309400DF
:1001B800013023223908A5003808A400A8230430F8
:1001C8009400013023223B08A5003A08A400A82384
:1001D80005309400013023222E30E52206309400A9
:1001E800013023223D08A5003C08A400A823CC2305
:1001F8003128A3001D08A1001C08A0001F089600B4
:100208001E0895002108980020089700E721160885
:10021800A1001508A0000130CF004F08A30720084F
:100228002104031D0229230884008313800101305F
:10023800A3021F0891001E0890001D0893001C08C7
:10024800920055221008A2001F0896001E0895006B
:100258001D0898001C089700E72116089D0015083E
:100268009C000A302202031C3D290730CF004F08AA
:10027800A2073030CF004F08A207230884002208C5
:10028800831380000130A3021C081D04031D1D29CF
:100298000130CF004F08A307080097018613960185
:1002A80021309200920B5629831286162130920033
:1002B800920B5C29831286120130CF004F089607F3
:1002C80003301602031C5429960121309200920B28
:1002D8006B29831286161708920012079700851D4E
:1002E8007829170801387A291708FE39970021302C
:1002F8009200920B7D29831286120130CF004F089D
:10030800960708301602031C6929861717089200F9
:1003180093010310920D930D0310920D930D120883
:10032800940013089500150891001408900008001F
:1003380097018613960121309200920BA12983120E
:10034800861621309200920BA7298312861201305B
:10035800CF004F08960703301602031C9F29960109
:1003680021309200920BB629831286161708920044
:1003780012079700061FC32917080138C52917084F
:10038800FE39970021309200920BC82983128612F9
:100398000130CF004F08960708301602031CB42915
:1003A80086171708920093010310920D930D0310FE
:1003B800920D930D120894001308950015089100EA
:1003C80014089000080099019A01150816040319E9
:1003D8001E2A9B019B0A961BFD2901300310950DCF
:1003E800960DFF3E031DF2290130CF004F089B07F1
:1003F800EF2901300310990D9A0DFF3E031DFE29C8
:1004080016081802031D0A2A15081702031C132AC6
:10041800150897021608031C98039802191401304E
:100428000310960C950CFF3E031D142A01309B0205
:10043800031DFD291A089600190895000800960062
:100448001603031D3C2A14087F3E990019089500DD
:1004580004300310950CFF3E031D2D2A1508970044
:1004680019080F39980017088823180888230800E6
:1004780002301606031D08001408BF3E990019082B
:10048800950004300310950CFF3E031D462A1508FD
:10049800970019080F399800170888231808882327
:1004A8000800100811040319822A9401940A911B68
:1004B800692A01300310900D910DFF3E031D5E2A3D
:1004C8000130CF004F0894075B2A11081302031D5F
:1004D8006F2A10081202031C772A100892021108CA
:1004E800031C9303930201300310910C900CFF3E00
:1004F800031D782A01309402031D692A130891000C
:1005080012089000080000305B231A309500F8307C
:100518009400940B8D2A950B8D2A000003308823B4
:10052800073095007D309400940B982A950B982AF3
:10053800033088230F30950047309400940BA22A8B
:10054800950BA22AA72A0330882302308823023079
:10055800882308308823003088230C308823003013
:1005680088230630882308001E3084003E309A0015
:1005780004089B0008309C001A08840083130008B4
:100588009D009A0A1B0884001D0880009B0A9C0B8A
:10059800C02A9A2383129401940A013023221E3020
:1005A800292372239A2383129401940A0130232267
:1005B800013090001E3043231E30292372239A23D2
:1005C8000800940014080F3992001408F0399300B9
:1005D80005141308910004300310910CFF3E031D0D
:1005E800F02A11085B2305150D309100910BFA2AAA
:1005F8008312051112085B2305150D309100910B2C
:10060800032B831205110800A001A1011C1C122B49
:100618001E08A0070318A10A1F08A107013003102C
:100628009E0D9F0DFF3E031D132B013003109D0CE3
:100638009C0CFF3E031D1A2B1C081D04031D0A2BCE
:1006480021089D0020089C00080098009601970149
:100658001608180795001508840083130008031965
:100668000800160818079500150884000008E522F8
:10067800013096070318970A003097072C2B910032
:100688001108920010088400C123CF0012088400CA
:100698004F08831380000008031908000130CF00B9
:1006A8004F0892070130CF004F089007462B83125E
:1006B8009000101C612B8614622B8610901C662BF0
:1006C8000615672B0611101D6B2B86156C2B8611D2
:1006D800901D702B0616080006120800920193015F
:1006E800CC230130831292070318930A0030930732
:1006F8001308803ACF0080304F02031D852B143039
:10070800120203180800742B8312930005101308B3
:100718005B2305150630920030309100910B922B27
:10072800920B922B000083120511080000308823D9
:10073800013088230330950097309400940BA22B46
:10074800950BA22BA72B080025089D0024089C00C8
:100758000A309E0000309F002630FD2026302923D5
:1007680008008B10C609C709D72383120F088A000F
:100778000E0E8300CE0E4E0E090003308A000408C8
:10078800840A8207003430342D343534563400342A
:10079800823083129100DD309000900BD12B910BA9
:1007A800D12BD62B080082308D00DD308C008C0BCD
:1007B800DB2B8D0BDB2BE02B0800573465346C34B6
:0A07C80063346F346D34653400347F
:02400E00F13F80
:00000001FF
