:020000040000FA
:02000000F42BDF
:100266000534003427089F0026089E000A30A000A7
:100276000030A1002830082328308D2108000030E6
:100286005021013050210330910097309000900B9F
:100296004A29910B4A294F29080083128F0005101D
:1002A6000F087721051506308E0030308D008D0B36
:1002B6005A298E0B5A290000831205110800422183
:1002C60083129001900A01304E22063098001330B6
:1002D6009700AD309600960B6E29970B6E29980BFA
:1002E6006E297529422108008C000C1C7C290614F5
:1002F6007D2906108C1C81298614822986100C1DE6
:1003060086290615872906118C1D8B298615080056
:1003160086110800940092019301120814079100B7
:100326001108840083130008031908001208140733
:100336009100110884000008C821013092070318B3
:10034600930A00309307902995019601111CB12953
:10035600130895070318960A140896070130031028
:10036600930D940DFF3E031DB22901300310920C2C
:10037600910CFF3E031DB92911081204031DA9297A
:1003860016089200150891000800900010080F3911
:100396008E001008F0398F0005140F088D00043008
:1003A60003108D0CFF3E031DD3290D08772105157B
:1003B6000D308D008D0BDD29831205110E08772176
:1003C60005150D308D008D0BE629831205110800E9
:1003D600003077211A309100F8309000900BF12907
:1003E600910BF129000003305021073091007D3038
:1003F6009000900BFC29910BFC29033050210F3003
:10040600910047309000900B062A910B062A0B2A82
:100416000330502102305021023050210830502143
:10042600003050210C305021003050210630502130
:1004360008000C080D040319492A9001900A8D1B27
:10044600302A013003108C0D8D0DFF3E031D252A29
:100456000130CF004F089007222A0D080F02031D16
:10046600362A0C080E02031C3E2A0C088E020D08C2
:10047600031C8F038F02013003108D0C8C0CFF3E82
:10048600031D3F2A01309002031D302A0F088D00FC
:100496000E088C00080092001203031D672A10083C
:1004A6007F3E95001508910004300310910CFF3E25
:1004B600031D582A1108930015080F3994001308D4
:1004C600502114085021080002301206031D0800AE
:1004D6001008BF3E95001508910004300310910CDA
:1004E600FF3E031D712A1108930015080F39940069
:1004F600130850211408502108009B019C0117087D
:1005060018040319B72A9D019D0A981B962A0130E3
:100516000310970D980DFF3E031D8B2A0130CF0067
:100526004F089D07882A013003109B0D9C0DFF3E46
:10053600031D972A18081A02031DA32A1708190271
:10054600031CAC2A170899021808031C9A039A027E
:100556001B1401300310980C970CFF3E031DAD2AA7
:1005660001309D02031D962A1C0898001B0897005F
:100576000800831293018613920121308E008E0BA0
:10058600C22A8312861621308E008E0BC82A831249
:1005960086120130CF004F08920703301202031C67
:1005A600C02A920121308E008E0BD72A831286161E
:1005B60013088E000E079300061FE42A130801385D
:1005C600E62A1308FE39930021308E008E0BE92AA5
:1005D600831286120130CF004F08920708301202AC
:1005E600031CD52A861713088E008F0103108E0D63
:1005F6008F0D03108E0D8F0D0E0890000F089100C1
:1006060011088D0010088C000800A5001F08A30023
:100616001E08A200210898002008970023089A00C7
:100626002208990080221808A3001708A2000130AA
:10063600CF004F08A50722082304031D0D2B25080C
:100646008400831380010130A50221088D00200853
:100656008C001F088F001E088E001C220C08A400A8
:1006660021089800200897001F089A001E08990084
:10067600802218089F0017089E000A302402031CD7
:10068600482B0730CF004F08A4073030CF004F0863
:10069600A407250884002408831380000130A502DE
:1006A6001E081F04031D282B0130CF004F08A50785
:1006B600080040308316860085018312861786124D
:1006C6008510EB216221BC220D08C8000C08C7006A
:1006D600CC3097000030980048089A0047089900E7
:1006E60080221808BC001708BB00CC3097000030E9
:1006F600980048088F0047088E00CC308C000030E8
:100706008D001C220D0892000C0891000A309300FF
:1007160000309400A72112089A001108990080223F
:100726001808BE001708BD00480892004708910047
:100736000A30930000309400A72112088F00110898
:100746008E00CC308C0000308D001C220D08C200BB
:100756000C08C100CC309700003098004208920087
:10076600410891000A30930000309400A721120836
:100776009A001108990080221808C0001708BF00C7
:10078600422183129001900A01304E223C08A700B4
:100796003B08A60035210230900001304E222E3053
:1007A600C8210330900001304E223E08A7003D08C4
:1007B600A60035210430900001304E224008A700E3
:1007C6003F08A60035210230BA000430B900BA301D
:1007D600B800B80BEC2BB90BEC2BBA0BEC2B0000CA
:1007E600662B3321C9003421CA00C301C401C501E7
:0A07F600C601C701C80183015C2B96
:02400E00F13F80
:00000001FF
